{
  "_format": "hh-sol-artifact-1",
  "contractName": "NftFactory",
  "sourceName": "contracts/Nft.sol",
  "abi": [
    {
      "inputs": [
        {
          "internalType": "address",
          "name": "initialOwner",
          "type": "address"
        }
      ],
      "stateMutability": "nonpayable",
      "type": "constructor"
    },
    {
      "inputs": [
        {
          "internalType": "address",
          "name": "sender",
          "type": "address"
        },
        {
          "internalType": "uint256",
          "name": "tokenId",
          "type": "uint256"
        },
        {
          "internalType": "address",
          "name": "owner",
          "type": "address"
        }
      ],
      "name": "ERC721IncorrectOwner",
      "type": "error"
    },
    {
      "inputs": [
        {
          "internalType": "address",
          "name": "operator",
          "type": "address"
        },
        {
          "internalType": "uint256",
          "name": "tokenId",
          "type": "uint256"
        }
      ],
      "name": "ERC721InsufficientApproval",
      "type": "error"
    },
    {
      "inputs": [
        {
          "internalType": "address",
          "name": "approver",
          "type": "address"
        }
      ],
      "name": "ERC721InvalidApprover",
      "type": "error"
    },
    {
      "inputs": [
        {
          "internalType": "address",
          "name": "operator",
          "type": "address"
        }
      ],
      "name": "ERC721InvalidOperator",
      "type": "error"
    },
    {
      "inputs": [
        {
          "internalType": "address",
          "name": "owner",
          "type": "address"
        }
      ],
      "name": "ERC721InvalidOwner",
      "type": "error"
    },
    {
      "inputs": [
        {
          "internalType": "address",
          "name": "receiver",
          "type": "address"
        }
      ],
      "name": "ERC721InvalidReceiver",
      "type": "error"
    },
    {
      "inputs": [
        {
          "internalType": "address",
          "name": "sender",
          "type": "address"
        }
      ],
      "name": "ERC721InvalidSender",
      "type": "error"
    },
    {
      "inputs": [
        {
          "internalType": "uint256",
          "name": "tokenId",
          "type": "uint256"
        }
      ],
      "name": "ERC721NonexistentToken",
      "type": "error"
    },
    {
      "inputs": [
        {
          "internalType": "address",
          "name": "owner",
          "type": "address"
        }
      ],
      "name": "OwnableInvalidOwner",
      "type": "error"
    },
    {
      "inputs": [
        {
          "internalType": "address",
          "name": "account",
          "type": "address"
        }
      ],
      "name": "OwnableUnauthorizedAccount",
      "type": "error"
    },
    {
      "anonymous": false,
      "inputs": [
        {
          "indexed": true,
          "internalType": "address",
          "name": "owner",
          "type": "address"
        },
        {
          "indexed": true,
          "internalType": "address",
          "name": "approved",
          "type": "address"
        },
        {
          "indexed": true,
          "internalType": "uint256",
          "name": "tokenId",
          "type": "uint256"
        }
      ],
      "name": "Approval",
      "type": "event"
    },
    {
      "anonymous": false,
      "inputs": [
        {
          "indexed": true,
          "internalType": "address",
          "name": "owner",
          "type": "address"
        },
        {
          "indexed": true,
          "internalType": "address",
          "name": "operator",
          "type": "address"
        },
        {
          "indexed": false,
          "internalType": "bool",
          "name": "approved",
          "type": "bool"
        }
      ],
      "name": "ApprovalForAll",
      "type": "event"
    },
    {
      "anonymous": false,
      "inputs": [
        {
          "indexed": false,
          "internalType": "uint256",
          "name": "_fromTokenId",
          "type": "uint256"
        },
        {
          "indexed": false,
          "internalType": "uint256",
          "name": "_toTokenId",
          "type": "uint256"
        }
      ],
      "name": "BatchMetadataUpdate",
      "type": "event"
    },
    {
      "anonymous": false,
      "inputs": [
        {
          "indexed": false,
          "internalType": "uint256",
          "name": "_tokenId",
          "type": "uint256"
        }
      ],
      "name": "MetadataUpdate",
      "type": "event"
    },
    {
      "anonymous": false,
      "inputs": [
        {
          "indexed": true,
          "internalType": "address",
          "name": "recipient",
          "type": "address"
        },
        {
          "indexed": true,
          "internalType": "uint256",
          "name": "tokenId",
          "type": "uint256"
        },
        {
          "indexed": false,
          "internalType": "string",
          "name": "metadataUri",
          "type": "string"
        }
      ],
      "name": "NFTMinted",
      "type": "event"
    },
    {
      "anonymous": false,
      "inputs": [
        {
          "indexed": true,
          "internalType": "address",
          "name": "previousOwner",
          "type": "address"
        },
        {
          "indexed": true,
          "internalType": "address",
          "name": "newOwner",
          "type": "address"
        }
      ],
      "name": "OwnershipTransferred",
      "type": "event"
    },
    {
      "anonymous": false,
      "inputs": [
        {
          "indexed": true,
          "internalType": "address",
          "name": "from",
          "type": "address"
        },
        {
          "indexed": true,
          "internalType": "address",
          "name": "to",
          "type": "address"
        },
        {
          "indexed": true,
          "internalType": "uint256",
          "name": "tokenId",
          "type": "uint256"
        }
      ],
      "name": "Transfer",
      "type": "event"
    },
    {
      "inputs": [],
      "name": "MINT_PRICE",
      "outputs": [
        {
          "internalType": "uint256",
          "name": "",
          "type": "uint256"
        }
      ],
      "stateMutability": "view",
      "type": "function"
    },
    {
      "inputs": [
        {
          "internalType": "address",
          "name": "to",
          "type": "address"
        },
        {
          "internalType": "uint256",
          "name": "tokenId",
          "type": "uint256"
        }
      ],
      "name": "approve",
      "outputs": [],
      "stateMutability": "nonpayable",
      "type": "function"
    },
    {
      "inputs": [
        {
          "internalType": "address",
          "name": "owner",
          "type": "address"
        }
      ],
      "name": "balanceOf",
      "outputs": [
        {
          "internalType": "uint256",
          "name": "",
          "type": "uint256"
        }
      ],
      "stateMutability": "view",
      "type": "function"
    },
    {
      "inputs": [
        {
          "internalType": "uint256",
          "name": "tokenId",
          "type": "uint256"
        }
      ],
      "name": "getApproved",
      "outputs": [
        {
          "internalType": "address",
          "name": "",
          "type": "address"
        }
      ],
      "stateMutability": "view",
      "type": "function"
    },
    {
      "inputs": [
        {
          "internalType": "address",
          "name": "owner",
          "type": "address"
        },
        {
          "internalType": "address",
          "name": "operator",
          "type": "address"
        }
      ],
      "name": "isApprovedForAll",
      "outputs": [
        {
          "internalType": "bool",
          "name": "",
          "type": "bool"
        }
      ],
      "stateMutability": "view",
      "type": "function"
    },
    {
      "inputs": [
        {
          "internalType": "string",
          "name": "uri",
          "type": "string"
        }
      ],
      "name": "isContentOwned",
      "outputs": [
        {
          "internalType": "bool",
          "name": "",
          "type": "bool"
        }
      ],
      "stateMutability": "view",
      "type": "function"
    },
    {
      "inputs": [],
      "name": "name",
      "outputs": [
        {
          "internalType": "string",
          "name": "",
          "type": "string"
        }
      ],
      "stateMutability": "view",
      "type": "function"
    },
    {
      "inputs": [],
      "name": "owner",
      "outputs": [
        {
          "internalType": "address",
          "name": "",
          "type": "address"
        }
      ],
      "stateMutability": "view",
      "type": "function"
    },
    {
      "inputs": [
        {
          "internalType": "uint256",
          "name": "tokenId",
          "type": "uint256"
        }
      ],
      "name": "ownerOf",
      "outputs": [
        {
          "internalType": "address",
          "name": "",
          "type": "address"
        }
      ],
      "stateMutability": "view",
      "type": "function"
    },
    {
      "inputs": [
        {
          "internalType": "address",
          "name": "recipient",
          "type": "address"
        },
        {
          "internalType": "string",
          "name": "metadataUri",
          "type": "string"
        }
      ],
      "name": "payToMint",
      "outputs": [
        {
          "internalType": "uint256",
          "name": "",
          "type": "uint256"
        }
      ],
      "stateMutability": "payable",
      "type": "function"
    },
    {
      "inputs": [],
      "name": "renounceOwnership",
      "outputs": [],
      "stateMutability": "nonpayable",
      "type": "function"
    },
    {
      "inputs": [
        {
          "internalType": "address",
          "name": "to",
          "type": "address"
        },
        {
          "internalType": "string",
          "name": "uri",
          "type": "string"
        }
      ],
      "name": "safeMint",
      "outputs": [],
      "stateMutability": "nonpayable",
      "type": "function"
    },
    {
      "inputs": [
        {
          "internalType": "address",
          "name": "from",
          "type": "address"
        },
        {
          "internalType": "address",
          "name": "to",
          "type": "address"
        },
        {
          "internalType": "uint256",
          "name": "tokenId",
          "type": "uint256"
        }
      ],
      "name": "safeTransferFrom",
      "outputs": [],
      "stateMutability": "nonpayable",
      "type": "function"
    },
    {
      "inputs": [
        {
          "internalType": "address",
          "name": "from",
          "type": "address"
        },
        {
          "internalType": "address",
          "name": "to",
          "type": "address"
        },
        {
          "internalType": "uint256",
          "name": "tokenId",
          "type": "uint256"
        },
        {
          "internalType": "bytes",
          "name": "data",
          "type": "bytes"
        }
      ],
      "name": "safeTransferFrom",
      "outputs": [],
      "stateMutability": "nonpayable",
      "type": "function"
    },
    {
      "inputs": [
        {
          "internalType": "address",
          "name": "operator",
          "type": "address"
        },
        {
          "internalType": "bool",
          "name": "approved",
          "type": "bool"
        }
      ],
      "name": "setApprovalForAll",
      "outputs": [],
      "stateMutability": "nonpayable",
      "type": "function"
    },
    {
      "inputs": [
        {
          "internalType": "bytes4",
          "name": "interfaceId",
          "type": "bytes4"
        }
      ],
      "name": "supportsInterface",
      "outputs": [
        {
          "internalType": "bool",
          "name": "",
          "type": "bool"
        }
      ],
      "stateMutability": "view",
      "type": "function"
    },
    {
      "inputs": [],
      "name": "symbol",
      "outputs": [
        {
          "internalType": "string",
          "name": "",
          "type": "string"
        }
      ],
      "stateMutability": "view",
      "type": "function"
    },
    {
      "inputs": [
        {
          "internalType": "uint256",
          "name": "tokenId",
          "type": "uint256"
        }
      ],
      "name": "tokenURI",
      "outputs": [
        {
          "internalType": "string",
          "name": "",
          "type": "string"
        }
      ],
      "stateMutability": "view",
      "type": "function"
    },
    {
      "inputs": [
        {
          "internalType": "address",
          "name": "from",
          "type": "address"
        },
        {
          "internalType": "address",
          "name": "to",
          "type": "address"
        },
        {
          "internalType": "uint256",
          "name": "tokenId",
          "type": "uint256"
        }
      ],
      "name": "transferFrom",
      "outputs": [],
      "stateMutability": "nonpayable",
      "type": "function"
    },
    {
      "inputs": [
        {
          "internalType": "address",
          "name": "newOwner",
          "type": "address"
        }
      ],
      "name": "transferOwnership",
      "outputs": [],
      "stateMutability": "nonpayable",
      "type": "function"
    },
    {
      "inputs": [],
      "name": "withdraw",
      "outputs": [],
      "stateMutability": "nonpayable",
      "type": "function"
    }
  ],
  "bytecode": "0x608060405234801561001057600080fd5b5060405161382a38038061382a83398181016040528101906100329190610272565b806040518060400160405280600a81526020017f4e6674466163746f7279000000000000000000000000000000000000000000008152506040518060400160405280600381526020017f4e4654000000000000000000000000000000000000000000000000000000000081525081600090816100ae91906104ef565b5080600190816100be91906104ef565b505050600073ffffffffffffffffffffffffffffffffffffffff168173ffffffffffffffffffffffffffffffffffffffff16036101335760006040517f1e4fbdf700000000000000000000000000000000000000000000000000000000815260040161012a91906105d0565b60405180910390fd5b6101428161014960201b60201c565b50506105eb565b6000600760009054906101000a900473ffffffffffffffffffffffffffffffffffffffff16905081600760006101000a81548173ffffffffffffffffffffffffffffffffffffffff021916908373ffffffffffffffffffffffffffffffffffffffff1602179055508173ffffffffffffffffffffffffffffffffffffffff168173ffffffffffffffffffffffffffffffffffffffff167f8be0079c531659141344cd1fd0a4f28419497f9722a3daafe3b4186f6b6457e060405160405180910390a35050565b600080fd5b600073ffffffffffffffffffffffffffffffffffffffff82169050919050565b600061023f82610214565b9050919050565b61024f81610234565b811461025a57600080fd5b50565b60008151905061026c81610246565b92915050565b6000602082840312156102885761028761020f565b5b60006102968482850161025d565b91505092915050565b600081519050919050565b7f4e487b7100000000000000000000000000000000000000000000000000000000600052604160045260246000fd5b7f4e487b7100000000000000000000000000000000000000000000000000000000600052602260045260246000fd5b6000600282049050600182168061032057607f821691505b602082108103610333576103326102d9565b5b50919050565b60008190508160005260206000209050919050565b60006020601f8301049050919050565b600082821b905092915050565b60006008830261039b7fffffffffffffffffffffffffffffffffffffffffffffffffffffffffffffffff8261035e565b6103a5868361035e565b95508019841693508086168417925050509392505050565b6000819050919050565b6000819050919050565b60006103ec6103e76103e2846103bd565b6103c7565b6103bd565b9050919050565b6000819050919050565b610406836103d1565b61041a610412826103f3565b84845461036b565b825550505050565b600090565b61042f610422565b61043a8184846103fd565b505050565b5b8181101561045e57610453600082610427565b600181019050610440565b5050565b601f8211156104a35761047481610339565b61047d8461034e565b8101602085101561048c578190505b6104a06104988561034e565b83018261043f565b50505b505050565b600082821c905092915050565b60006104c6600019846008026104a8565b1980831691505092915050565b60006104df83836104b5565b9150826002028217905092915050565b6104f88261029f565b67ffffffffffffffff811115610511576105106102aa565b5b61051b8254610308565b610526828285610462565b600060209050601f8311600181146105595760008415610547578287015190505b61055185826104d3565b8655506105b9565b601f19841661056786610339565b60005b8281101561058f5784890151825560018201915060208501945060208101905061056a565b868310156105ac57848901516105a8601f8916826104b5565b8355505b6001600288020188555050505b505050505050565b6105ca81610234565b82525050565b60006020820190506105e560008301846105c1565b92915050565b613230806105fa6000396000f3fe60806040526004361061012a5760003560e01c8063715018a6116100ab578063b88d4fde1161006f578063b88d4fde146103e3578063c002d23d1461040c578063c87b56dd14610437578063d204c45e14610474578063e985e9c51461049d578063f2fde38b146104da5761012a565b8063715018a6146103105780638da5cb5b1461032757806395d89b41146103525780639f1cabc61461037d578063a22cb465146103ba5761012a565b80633ccfd60b116100f25780633ccfd60b1461022657806342842e0e1461023d578063615fd9e2146102665780636352211e1461029657806370a08231146102d35761012a565b806301ffc9a71461012f57806306fdde031461016c578063081812fc14610197578063095ea7b3146101d457806323b872dd146101fd575b600080fd5b34801561013b57600080fd5b506101566004803603810190610151919061224e565b610503565b6040516101639190612296565b60405180910390f35b34801561017857600080fd5b50610181610515565b60405161018e9190612341565b60405180910390f35b3480156101a357600080fd5b506101be60048036038101906101b99190612399565b6105a7565b6040516101cb9190612407565b60405180910390f35b3480156101e057600080fd5b506101fb60048036038101906101f6919061244e565b6105c3565b005b34801561020957600080fd5b50610224600480360381019061021f919061248e565b6105d9565b005b34801561023257600080fd5b5061023b6106db565b005b34801561024957600080fd5b50610264600480360381019061025f919061248e565b6107e2565b005b610280600480360381019061027b9190612616565b610802565b60405161028d9190612681565b60405180910390f35b3480156102a257600080fd5b506102bd60048036038101906102b89190612399565b610b00565b6040516102ca9190612407565b60405180910390f35b3480156102df57600080fd5b506102fa60048036038101906102f5919061269c565b610b12565b6040516103079190612681565b60405180910390f35b34801561031c57600080fd5b50610325610bcc565b005b34801561033357600080fd5b5061033c610be0565b6040516103499190612407565b60405180910390f35b34801561035e57600080fd5b50610367610c0a565b6040516103749190612341565b60405180910390f35b34801561038957600080fd5b506103a4600480360381019061039f91906126c9565b610c9c565b6040516103b19190612296565b60405180910390f35b3480156103c657600080fd5b506103e160048036038101906103dc919061273e565b610cd7565b005b3480156103ef57600080fd5b5061040a6004803603810190610405919061281f565b610ced565b005b34801561041857600080fd5b50610421610d12565b60405161042e9190612681565b60405180910390f35b34801561044357600080fd5b5061045e60048036038101906104599190612399565b610d1d565b60405161046b9190612341565b60405180910390f35b34801561048057600080fd5b5061049b60048036038101906104969190612616565b610d2f565b005b3480156104a957600080fd5b506104c460048036038101906104bf91906128a2565b610ea7565b6040516104d19190612296565b60405180910390f35b3480156104e657600080fd5b5061050160048036038101906104fc919061269c565b610f3b565b005b600061050e82610fc1565b9050919050565b60606000805461052490612911565b80601f016020809104026020016040519081016040528092919081815260200182805461055090612911565b801561059d5780601f106105725761010080835404028352916020019161059d565b820191906000526020600020905b81548152906001019060200180831161058057829003601f168201915b5050505050905090565b60006105b282611022565b506105bc826110aa565b9050919050565b6105d582826105d06110e7565b6110ef565b5050565b600073ffffffffffffffffffffffffffffffffffffffff168273ffffffffffffffffffffffffffffffffffffffff160361064b5760006040517f64a0ae920000000000000000000000000000000000000000000000000000000081526004016106429190612407565b60405180910390fd5b600061065f838361065a6110e7565b611101565b90508373ffffffffffffffffffffffffffffffffffffffff168173ffffffffffffffffffffffffffffffffffffffff16146106d5578382826040517f64283d7b0000000000000000000000000000000000000000000000000000000081526004016106cc93929190612942565b60405180910390fd5b50505050565b6106e3611117565b60004790506000811161072b576040517f08c379a0000000000000000000000000000000000000000000000000000000008152600401610722906129c5565b60405180910390fd5b6000610735610be0565b73ffffffffffffffffffffffffffffffffffffffff168260405161075890612a16565b60006040518083038185875af1925050503d8060008114610795576040519150601f19603f3d011682016040523d82523d6000602084013e61079a565b606091505b50509050806107de576040517f08c379a00000000000000000000000000000000000000000000000000000000081526004016107d590612a77565b60405180910390fd5b5050565b6107fd83838360405180602001604052806000815250610ced565b505050565b600080825111610847576040517f08c379a000000000000000000000000000000000000000000000000000000000815260040161083e90612ae3565b60405180910390fd5b60016009836040516108599190612b3f565b908152602001604051809103902060009054906101000a900460ff1660ff16036108b8576040517f08c379a00000000000000000000000000000000000000000000000000000000081526004016108af90612ba2565b60405180910390fd5b662386f26fc10000341015610902576040517f08c379a00000000000000000000000000000000000000000000000000000000081526004016108f990612c0e565b60405180910390fd5b600073ffffffffffffffffffffffffffffffffffffffff168373ffffffffffffffffffffffffffffffffffffffff1603610971576040517f08c379a000000000000000000000000000000000000000000000000000000000815260040161096890612c7a565b60405180910390fd5b60006008600081548092919061098690612cc9565b919050559050600160098460405161099e9190612b3f565b908152602001604051809103902060006101000a81548160ff021916908360ff1602179055506109ce848261119e565b6109d88184611297565b808473ffffffffffffffffffffffffffffffffffffffff167fd35bb95e09c04b219e35047ce7b7b300e3384264ef84a40456943dbc0fc17c1485604051610a1f9190612341565b60405180910390a36000662386f26fc1000034610a3c9190612d11565b90506000811115610af55760003373ffffffffffffffffffffffffffffffffffffffff1682604051610a6d90612a16565b60006040518083038185875af1925050503d8060008114610aaa576040519150601f19603f3d011682016040523d82523d6000602084013e610aaf565b606091505b5050905080610af3576040517f08c379a0000000000000000000000000000000000000000000000000000000008152600401610aea90612d91565b60405180910390fd5b505b819250505092915050565b6000610b0b82611022565b9050919050565b60008073ffffffffffffffffffffffffffffffffffffffff168273ffffffffffffffffffffffffffffffffffffffff1603610b855760006040517f89c62b64000000000000000000000000000000000000000000000000000000008152600401610b7c9190612407565b60405180910390fd5b600360008373ffffffffffffffffffffffffffffffffffffffff1673ffffffffffffffffffffffffffffffffffffffff168152602001908152602001600020549050919050565b610bd4611117565b610bde60006112f3565b565b6000600760009054906101000a900473ffffffffffffffffffffffffffffffffffffffff16905090565b606060018054610c1990612911565b80601f0160208091040260200160405190810160405280929190818152602001828054610c4590612911565b8015610c925780601f10610c6757610100808354040283529160200191610c92565b820191906000526020600020905b815481529060010190602001808311610c7557829003601f168201915b5050505050905090565b60006001600983604051610cb09190612b3f565b908152602001604051809103902060009054906101000a900460ff1660ff16149050919050565b610ce9610ce26110e7565b83836113b9565b5050565b610cf88484846105d9565b610d0c610d036110e7565b85858585611528565b50505050565b662386f26fc1000081565b6060610d28826116d9565b9050919050565b610d37611117565b6000815111610d7b576040517f08c379a0000000000000000000000000000000000000000000000000000000008152600401610d7290612dfd565b60405180910390fd5b6001600982604051610d8d9190612b3f565b908152602001604051809103902060009054906101000a900460ff1660ff1603610dec576040517f08c379a0000000000000000000000000000000000000000000000000000000008152600401610de390612ba2565b60405180910390fd5b600060086000815480929190610e0190612cc9565b9190505590506001600983604051610e199190612b3f565b908152602001604051809103902060006101000a81548160ff021916908360ff160217905550610e4983826117ec565b610e538183611297565b808373ffffffffffffffffffffffffffffffffffffffff167fd35bb95e09c04b219e35047ce7b7b300e3384264ef84a40456943dbc0fc17c1484604051610e9a9190612341565b60405180910390a3505050565b6000600560008473ffffffffffffffffffffffffffffffffffffffff1673ffffffffffffffffffffffffffffffffffffffff16815260200190815260200160002060008373ffffffffffffffffffffffffffffffffffffffff1673ffffffffffffffffffffffffffffffffffffffff16815260200190815260200160002060009054906101000a900460ff16905092915050565b610f43611117565b600073ffffffffffffffffffffffffffffffffffffffff168173ffffffffffffffffffffffffffffffffffffffff1603610fb55760006040517f1e4fbdf7000000000000000000000000000000000000000000000000000000008152600401610fac9190612407565b60405180910390fd5b610fbe816112f3565b50565b6000634906490660e01b7bffffffffffffffffffffffffffffffffffffffffffffffffffffffff1916827bffffffffffffffffffffffffffffffffffffffffffffffffffffffff1916148061101b575061101a8261180a565b5b9050919050565b60008061102e836118ec565b9050600073ffffffffffffffffffffffffffffffffffffffff168173ffffffffffffffffffffffffffffffffffffffff16036110a157826040517f7e2732890000000000000000000000000000000000000000000000000000000081526004016110989190612681565b60405180910390fd5b80915050919050565b60006004600083815260200190815260200160002060009054906101000a900473ffffffffffffffffffffffffffffffffffffffff169050919050565b600033905090565b6110fc8383836001611929565b505050565b600061110e848484611aee565b90509392505050565b61111f6110e7565b73ffffffffffffffffffffffffffffffffffffffff1661113d610be0565b73ffffffffffffffffffffffffffffffffffffffff161461119c576111606110e7565b6040517f118cdaa70000000000000000000000000000000000000000000000000000000081526004016111939190612407565b60405180910390fd5b565b600073ffffffffffffffffffffffffffffffffffffffff168273ffffffffffffffffffffffffffffffffffffffff16036112105760006040517f64a0ae920000000000000000000000000000000000000000000000000000000081526004016112079190612407565b60405180910390fd5b600061121e83836000611101565b9050600073ffffffffffffffffffffffffffffffffffffffff168173ffffffffffffffffffffffffffffffffffffffff16146112925760006040517f73c6ac6e0000000000000000000000000000000000000000000000000000000081526004016112899190612407565b60405180910390fd5b505050565b806006600084815260200190815260200160002090816112b79190612fc9565b507ff8e1a15aba9398e019f0b49df1a4fde98ee17ae345cb5f6b5e2c27f5033e8ce7826040516112e79190612681565b60405180910390a15050565b6000600760009054906101000a900473ffffffffffffffffffffffffffffffffffffffff16905081600760006101000a81548173ffffffffffffffffffffffffffffffffffffffff021916908373ffffffffffffffffffffffffffffffffffffffff1602179055508173ffffffffffffffffffffffffffffffffffffffff168173ffffffffffffffffffffffffffffffffffffffff167f8be0079c531659141344cd1fd0a4f28419497f9722a3daafe3b4186f6b6457e060405160405180910390a35050565b600073ffffffffffffffffffffffffffffffffffffffff168273ffffffffffffffffffffffffffffffffffffffff160361142a57816040517f5b08ba180000000000000000000000000000000000000000000000000000000081526004016114219190612407565b60405180910390fd5b80600560008573ffffffffffffffffffffffffffffffffffffffff1673ffffffffffffffffffffffffffffffffffffffff16815260200190815260200160002060008473ffffffffffffffffffffffffffffffffffffffff1673ffffffffffffffffffffffffffffffffffffffff16815260200190815260200160002060006101000a81548160ff0219169083151502179055508173ffffffffffffffffffffffffffffffffffffffff168373ffffffffffffffffffffffffffffffffffffffff167f17307eab39ab6107e8899845ad3d59bd9653f200f220920489ca2b5937696c318360405161151b9190612296565b60405180910390a3505050565b60008373ffffffffffffffffffffffffffffffffffffffff163b11156116d2578273ffffffffffffffffffffffffffffffffffffffff1663150b7a02868685856040518563ffffffff1660e01b815260040161158794939291906130f0565b6020604051808303816000875af19250505080156115c357506040513d601f19601f820116820180604052508101906115c09190613151565b60015b611647573d80600081146115f3576040519150601f19603f3d011682016040523d82523d6000602084013e6115f8565b606091505b50600081510361163f57836040517f64a0ae920000000000000000000000000000000000000000000000000000000081526004016116369190612407565b60405180910390fd5b805181602001fd5b63150b7a0260e01b7bffffffffffffffffffffffffffffffffffffffffffffffffffffffff1916817bffffffffffffffffffffffffffffffffffffffffffffffffffffffff1916146116d057836040517f64a0ae920000000000000000000000000000000000000000000000000000000081526004016116c79190612407565b60405180910390fd5b505b5050505050565b60606116e482611022565b50600060066000848152602001908152602001600020805461170590612911565b80601f016020809104026020016040519081016040528092919081815260200182805461173190612911565b801561177e5780601f106117535761010080835404028352916020019161177e565b820191906000526020600020905b81548152906001019060200180831161176157829003601f168201915b50505050509050600061178f611d08565b905060008151036117a45781925050506117e7565b6000825111156117d95780826040516020016117c192919061317e565b604051602081830303815290604052925050506117e7565b6117e284611d45565b925050505b919050565b611806828260405180602001604052806000815250611dae565b5050565b60007f80ac58cd000000000000000000000000000000000000000000000000000000007bffffffffffffffffffffffffffffffffffffffffffffffffffffffff1916827bffffffffffffffffffffffffffffffffffffffffffffffffffffffff191614806118d557507f5b5e139f000000000000000000000000000000000000000000000000000000007bffffffffffffffffffffffffffffffffffffffffffffffffffffffff1916827bffffffffffffffffffffffffffffffffffffffffffffffffffffffff1916145b806118e557506118e482611dd2565b5b9050919050565b60006002600083815260200190815260200160002060009054906101000a900473ffffffffffffffffffffffffffffffffffffffff169050919050565b80806119625750600073ffffffffffffffffffffffffffffffffffffffff168273ffffffffffffffffffffffffffffffffffffffff1614155b15611a9657600061197284611022565b9050600073ffffffffffffffffffffffffffffffffffffffff168373ffffffffffffffffffffffffffffffffffffffff16141580156119dd57508273ffffffffffffffffffffffffffffffffffffffff168173ffffffffffffffffffffffffffffffffffffffff1614155b80156119f057506119ee8184610ea7565b155b15611a3257826040517fa9fbf51f000000000000000000000000000000000000000000000000000000008152600401611a299190612407565b60405180910390fd5b8115611a9457838573ffffffffffffffffffffffffffffffffffffffff168273ffffffffffffffffffffffffffffffffffffffff167f8c5be1e5ebec7d5bd14f71427d1e84f3dd0314c0f7b2291e5b200ac8c7c3b92560405160405180910390a45b505b836004600085815260200190815260200160002060006101000a81548173ffffffffffffffffffffffffffffffffffffffff021916908373ffffffffffffffffffffffffffffffffffffffff16021790555050505050565b600080611afa846118ec565b9050600073ffffffffffffffffffffffffffffffffffffffff168373ffffffffffffffffffffffffffffffffffffffff1614611b3c57611b3b818486611e3c565b5b600073ffffffffffffffffffffffffffffffffffffffff168173ffffffffffffffffffffffffffffffffffffffff1614611bcd57611b7e600085600080611929565b6001600360008373ffffffffffffffffffffffffffffffffffffffff1673ffffffffffffffffffffffffffffffffffffffff168152602001908152602001600020600082825403925050819055505b600073ffffffffffffffffffffffffffffffffffffffff168573ffffffffffffffffffffffffffffffffffffffff1614611c50576001600360008773ffffffffffffffffffffffffffffffffffffffff1673ffffffffffffffffffffffffffffffffffffffff168152602001908152602001600020600082825401925050819055505b846002600086815260200190815260200160002060006101000a81548173ffffffffffffffffffffffffffffffffffffffff021916908373ffffffffffffffffffffffffffffffffffffffff160217905550838573ffffffffffffffffffffffffffffffffffffffff168273ffffffffffffffffffffffffffffffffffffffff167fddf252ad1be2c89b69c2b068fc378daa952ba7f163c4a11628f55a4df523b3ef60405160405180910390a4809150509392505050565b60606040518060400160405280600781526020017f697066733a2f2f00000000000000000000000000000000000000000000000000815250905090565b6060611d5082611022565b506000611d5b611d08565b90506000815111611d7b5760405180602001604052806000815250611da6565b80611d8584611f00565b604051602001611d9692919061317e565b6040516020818303038152906040525b915050919050565b611db8838361119e565b611dcd611dc36110e7565b6000858585611528565b505050565b60007f01ffc9a7000000000000000000000000000000000000000000000000000000007bffffffffffffffffffffffffffffffffffffffffffffffffffffffff1916827bffffffffffffffffffffffffffffffffffffffffffffffffffffffff1916149050919050565b611e47838383611fce565b611efb57600073ffffffffffffffffffffffffffffffffffffffff168373ffffffffffffffffffffffffffffffffffffffff1603611ebc57806040517f7e273289000000000000000000000000000000000000000000000000000000008152600401611eb39190612681565b60405180910390fd5b81816040517f177e802f000000000000000000000000000000000000000000000000000000008152600401611ef29291906131a2565b60405180910390fd5b505050565b606060006001611f0f8461208f565b01905060008167ffffffffffffffff811115611f2e57611f2d6124eb565b5b6040519080825280601f01601f191660200182016040528015611f605781602001600182028036833780820191505090505b509050600082602001820190505b600115611fc3578080600190039150507f3031323334353637383961626364656600000000000000000000000000000000600a86061a8153600a8581611fb757611fb66131cb565b5b04945060008503611f6e575b819350505050919050565b60008073ffffffffffffffffffffffffffffffffffffffff168373ffffffffffffffffffffffffffffffffffffffff161415801561208657508273ffffffffffffffffffffffffffffffffffffffff168473ffffffffffffffffffffffffffffffffffffffff16148061204757506120468484610ea7565b5b8061208557508273ffffffffffffffffffffffffffffffffffffffff1661206d836110aa565b73ffffffffffffffffffffffffffffffffffffffff16145b5b90509392505050565b600080600090507a184f03e93ff9f4daa797ed6e38ed64bf6a1f01000000000000000083106120ed577a184f03e93ff9f4daa797ed6e38ed64bf6a1f01000000000000000083816120e3576120e26131cb565b5b0492506040810190505b6d04ee2d6d415b85acef8100000000831061212a576d04ee2d6d415b85acef810000000083816121205761211f6131cb565b5b0492506020810190505b662386f26fc10000831061215957662386f26fc10000838161214f5761214e6131cb565b5b0492506010810190505b6305f5e1008310612182576305f5e1008381612178576121776131cb565b5b0492506008810190505b61271083106121a757612710838161219d5761219c6131cb565b5b0492506004810190505b606483106121ca57606483816121c0576121bf6131cb565b5b0492506002810190505b600a83106121d9576001810190505b80915050919050565b6000604051905090565b600080fd5b600080fd5b60007fffffffff0000000000000000000000000000000000000000000000000000000082169050919050565b61222b816121f6565b811461223657600080fd5b50565b60008135905061224881612222565b92915050565b600060208284031215612264576122636121ec565b5b600061227284828501612239565b91505092915050565b60008115159050919050565b6122908161227b565b82525050565b60006020820190506122ab6000830184612287565b92915050565b600081519050919050565b600082825260208201905092915050565b60005b838110156122eb5780820151818401526020810190506122d0565b60008484015250505050565b6000601f19601f8301169050919050565b6000612313826122b1565b61231d81856122bc565b935061232d8185602086016122cd565b612336816122f7565b840191505092915050565b6000602082019050818103600083015261235b8184612308565b905092915050565b6000819050919050565b61237681612363565b811461238157600080fd5b50565b6000813590506123938161236d565b92915050565b6000602082840312156123af576123ae6121ec565b5b60006123bd84828501612384565b91505092915050565b600073ffffffffffffffffffffffffffffffffffffffff82169050919050565b60006123f1826123c6565b9050919050565b612401816123e6565b82525050565b600060208201905061241c60008301846123f8565b92915050565b61242b816123e6565b811461243657600080fd5b50565b60008135905061244881612422565b92915050565b60008060408385031215612465576124646121ec565b5b600061247385828601612439565b925050602061248485828601612384565b9150509250929050565b6000806000606084860312156124a7576124a66121ec565b5b60006124b586828701612439565b93505060206124c686828701612439565b92505060406124d786828701612384565b9150509250925092565b600080fd5b600080fd5b7f4e487b7100000000000000000000000000000000000000000000000000000000600052604160045260246000fd5b612523826122f7565b810181811067ffffffffffffffff82111715612542576125416124eb565b5b80604052505050565b60006125556121e2565b9050612561828261251a565b919050565b600067ffffffffffffffff821115612581576125806124eb565b5b61258a826122f7565b9050602081019050919050565b82818337600083830152505050565b60006125b96125b484612566565b61254b565b9050828152602081018484840111156125d5576125d46124e6565b5b6125e0848285612597565b509392505050565b600082601f8301126125fd576125fc6124e1565b5b813561260d8482602086016125a6565b91505092915050565b6000806040838503121561262d5761262c6121ec565b5b600061263b85828601612439565b925050602083013567ffffffffffffffff81111561265c5761265b6121f1565b5b612668858286016125e8565b9150509250929050565b61267b81612363565b82525050565b60006020820190506126966000830184612672565b92915050565b6000602082840312156126b2576126b16121ec565b5b60006126c084828501612439565b91505092915050565b6000602082840312156126df576126de6121ec565b5b600082013567ffffffffffffffff8111156126fd576126fc6121f1565b5b612709848285016125e8565b91505092915050565b61271b8161227b565b811461272657600080fd5b50565b60008135905061273881612712565b92915050565b60008060408385031215612755576127546121ec565b5b600061276385828601612439565b925050602061277485828601612729565b9150509250929050565b600067ffffffffffffffff821115612799576127986124eb565b5b6127a2826122f7565b9050602081019050919050565b60006127c26127bd8461277e565b61254b565b9050828152602081018484840111156127de576127dd6124e6565b5b6127e9848285612597565b509392505050565b600082601f830112612806576128056124e1565b5b81356128168482602086016127af565b91505092915050565b60008060008060808587031215612839576128386121ec565b5b600061284787828801612439565b945050602061285887828801612439565b935050604061286987828801612384565b925050606085013567ffffffffffffffff81111561288a576128896121f1565b5b612896878288016127f1565b91505092959194509250565b600080604083850312156128b9576128b86121ec565b5b60006128c785828601612439565b92505060206128d885828601612439565b9150509250929050565b7f4e487b7100000000000000000000000000000000000000000000000000000000600052602260045260246000fd5b6000600282049050600182168061292957607f821691505b60208210810361293c5761293b6128e2565b5b50919050565b600060608201905061295760008301866123f8565b6129646020830185612672565b61297160408301846123f8565b949350505050565b7f4e6f2062616c616e636520746f20776974686472617700000000000000000000600082015250565b60006129af6016836122bc565b91506129ba82612979565b602082019050919050565b600060208201905081810360008301526129de816129a2565b9050919050565b600081905092915050565b50565b6000612a006000836129e5565b9150612a0b826129f0565b600082019050919050565b6000612a21826129f3565b9150819050919050565b7f4661696c656420746f2077697468647261770000000000000000000000000000600082015250565b6000612a616012836122bc565b9150612a6c82612a2b565b602082019050919050565b60006020820190508181036000830152612a9081612a54565b9050919050565b7f4d65746164617461205552492063616e6e6f7420626520656d70747900000000600082015250565b6000612acd601c836122bc565b9150612ad882612a97565b602082019050919050565b60006020820190508181036000830152612afc81612ac0565b9050919050565b600081905092915050565b6000612b19826122b1565b612b238185612b03565b9350612b338185602086016122cd565b80840191505092915050565b6000612b4b8284612b0e565b915081905092915050565b7f4e465420616c7265616479206d696e7465642077697468207468697320555249600082015250565b6000612b8c6020836122bc565b9150612b9782612b56565b602082019050919050565b60006020820190508181036000830152612bbb81612b7f565b9050919050565b7f496e73756666696369656e74207061796d656e7420616d6f756e740000000000600082015250565b6000612bf8601b836122bc565b9150612c0382612bc2565b602082019050919050565b60006020820190508181036000830152612c2781612beb565b9050919050565b7f496e76616c696420726563697069656e74206164647265737300000000000000600082015250565b6000612c646019836122bc565b9150612c6f82612c2e565b602082019050919050565b60006020820190508181036000830152612c9381612c57565b9050919050565b7f4e487b7100000000000000000000000000000000000000000000000000000000600052601160045260246000fd5b6000612cd482612363565b91507fffffffffffffffffffffffffffffffffffffffffffffffffffffffffffffffff8203612d0657612d05612c9a565b5b600182019050919050565b6000612d1c82612363565b9150612d2783612363565b9250828203905081811115612d3f57612d3e612c9a565b5b92915050565b7f4661696c656420746f20726566756e6420657863657373207061796d656e7400600082015250565b6000612d7b601f836122bc565b9150612d8682612d45565b602082019050919050565b60006020820190508181036000830152612daa81612d6e565b9050919050565b7f5552492063616e6e6f7420626520656d70747900000000000000000000000000600082015250565b6000612de76013836122bc565b9150612df282612db1565b602082019050919050565b60006020820190508181036000830152612e1681612dda565b9050919050565b60008190508160005260206000209050919050565b60006020601f8301049050919050565b600082821b905092915050565b600060088302612e7f7fffffffffffffffffffffffffffffffffffffffffffffffffffffffffffffffff82612e42565b612e898683612e42565b95508019841693508086168417925050509392505050565b6000819050919050565b6000612ec6612ec1612ebc84612363565b612ea1565b612363565b9050919050565b6000819050919050565b612ee083612eab565b612ef4612eec82612ecd565b848454612e4f565b825550505050565b600090565b612f09612efc565b612f14818484612ed7565b505050565b5b81811015612f3857612f2d600082612f01565b600181019050612f1a565b5050565b601f821115612f7d57612f4e81612e1d565b612f5784612e32565b81016020851015612f66578190505b612f7a612f7285612e32565b830182612f19565b50505b505050565b600082821c905092915050565b6000612fa060001984600802612f82565b1980831691505092915050565b6000612fb98383612f8f565b9150826002028217905092915050565b612fd2826122b1565b67ffffffffffffffff811115612feb57612fea6124eb565b5b612ff58254612911565b613000828285612f3c565b600060209050601f8311600181146130335760008415613021578287015190505b61302b8582612fad565b865550613093565b601f19841661304186612e1d565b60005b8281101561306957848901518255600182019150602085019450602081019050613044565b868310156130865784890151613082601f891682612f8f565b8355505b6001600288020188555050505b505050505050565b600081519050919050565b600082825260208201905092915050565b60006130c28261309b565b6130cc81856130a6565b93506130dc8185602086016122cd565b6130e5816122f7565b840191505092915050565b600060808201905061310560008301876123f8565b61311260208301866123f8565b61311f6040830185612672565b818103606083015261313181846130b7565b905095945050505050565b60008151905061314b81612222565b92915050565b600060208284031215613167576131666121ec565b5b60006131758482850161313c565b91505092915050565b600061318a8285612b0e565b91506131968284612b0e565b91508190509392505050565b60006040820190506131b760008301856123f8565b6131c46020830184612672565b9392505050565b7f4e487b7100000000000000000000000000000000000000000000000000000000600052601260045260246000fdfea264697066735822122009843d8be645bba9242dd22e1b106d3b9cacd4ea21a86b31213486b16b21c88364736f6c634300081b0033",
  "linkReferences": {},
  "deployedLinkReferences": {}
}